:020000040800F2
:1000000018040020DD010008E5010008E7010008F0
:10001000E9010008EB010008ED0100080000000004
:10002000000000000000000000000000190C0008A3
:10003000F101000800000000170C00081B0C00086C
:10004000F7010008F7010008F7010008F7010008B0
:10005000F7010008F7010008F7010008F7010008A0
:10006000F7010008F7010008F7010008F701000890
:10007000F7010008F7010008F7010008F701000880
:10008000F7010008F7010008F7010008F701000870
:10009000F7010008F7010008F7010008F701000860
:1000A000F7010008F7010008F7010008F701000850
:1000B000F7010008F7010008F7010008F701000840
:1000C000F7010008F7010008F7010008F701000830
:1000D000F7010008F7010008F7010008F701000820
:1000E000F7010008F7010008F7010008F701000810
:1000F000F7010008F7010008F7010008F701000800
:10010000F7010008F7010008F7010008F7010008EF
:10011000F7010008F7010008F7010008F7010008DF
:10012000F7010008F7010008F7010008F7010008CF
:10013000F7010008F7010008F7010008F7010008BF
:10014000F7010008F7010008F7010008F7010008AF
:10015000F7010008F7010008F7010008F70100089F
:10016000F7010008F7010008F7010008F70100088F
:10017000F7010008F7010008F7010008000000007F
:10018000F7010008F7010008F7010008F70100086F
:10019000F7010008F7010008F7010008F70100085F
:1001A000F7010008F7010008F7010008F70100084F
:1001B000F7010008F7010008F7010008F70100083F
:1001C000F7010008F7010008DFF80CD000F068F82C
:1001D000004800472D0D00081804002006488047FD
:1001E00006480047FEE7FEE7FEE7FEE7FEE7FEE71C
:1001F000FEE7FEE7FEE7FEE7B90C0008C9010008CC
:100200002DE9F05F0546002092469B46884606464B
:10021000814640241BE0284641464746224600F0DE
:100220002FF853465A46C01A914110D3114618462A
:10023000224600F016F82D1A67EB01084F462246B9
:100240000120002100F00DF817EB00094E41201E9F
:10025000A4F10104DFDC484631462A464346BDE8A6
:10026000F09F202A04DB203A00FA02F100207047B8
:100270009140C2F1200320FA03F3194390407047E4
:10028000202A04DB203A21FA02F00021704721FAEB
:1002900002F3D040C2F12002914008431946704752
:1002A000064C074D06E0E06840F0010394E80700C3
:1002B00098471034AC42F6D3FFF78AFFC40D00080C
:1002C000E40D000870B50D4E4FF400552946304638
:1002D00000F016F90A4C012801D0206808E02946F0
:1002E000304600F00DF90028F9D12068401C20604C
:1002F000032801DD0020206070BD000000080240DE
:100300000000002070B5044600F004F90546601CAA
:1003100002D004480078044400F0FCF8401BA042DE
:10032000FAD370BD040000202DE9F84FDFF89CE1FE
:1003300000224FF001084FF0030B4FF00F0A00BFEF
:100340000B6808FA02F42340A34271D14D68022DD4
:1003500001D0122D0FD1D5080E69570700EB850586
:10036000A9462D6AFF0E0AFA07FCBE4025EA0C05D5
:100370002E43C9F820600F79550006680BFA05FC7A
:1003800007F0030726EA0C06AF40374307604E68C4
:10039000012E05D0022E03D0112E01D0122E0ED127
:1003A0008668CF6826EA0C06AF4037438760466808
:1003B0000F79A643C7F30017974037434760C468D7
:1003C0008E6824EA0C04AE402643C6604C68E40004
:1003D00075D53F4C256845F480452560246822F09A
:1003E0000306950704F4804400943A4C2D0F2644EC
:1003F000D6F80848DFF8E0C00AFA05F7604524EAB5
:10040000070401D100272EE0344FB84201D1012763
:1004100029E0334FB84201D1022724E0314FB842DE
:1004200001D103271FE0304FB84202D104271AE060
:1004300045E02E4FB84201D1052714E02C4FB842B9
:1004400001D106270FE02B4FB84201D107270AE060
:10045000294FB84201D1082705E0284FB84201D101
:10046000092700E00A27AF4027437546C6F80878F9
:100470004E68DEF80040F60324EA030400D51C436E
:10048000124E2C60361D4D683468AD0324EA030417
:1004900000D51C430D4F346008374D683C68ED02B1
:1004A00024EA030400D51C43084D3C600C354E681B
:1004B0002C68B60224EA030400D51C432C60521CAD
:1004C000102AFFF43DAFBDE8F88F0000003C01406A
:1004D0004438024000300140000002400004024065
:1004E00000080240000C02400010024000140240CC
:1004F00000180240001C024000200240002402407C
:100500000069084000D0012070470AB1816170473E
:100510000904FBE7014880687047000004000020E0
:10052000024881680278114481607047040000200D
:10053000032010B500F08AF8002000F005F800F064
:1005400023F8002010BD000070B50D4D04464FF497
:100550007A700C4A29781268B0FBF1F0B2FBF0F027
:1005600000F0FBFA48B9102C07D200222146501E99
:1005700000F04CF800206C6070BD012070BD0000E0
:1005800004000020100000201F4808B5016841F059
:1005900080510160006800F0805000901A48001DF2
:1005A000016841F480410160006800F480400090DF
:1005B000032000F04BF800226FF00B00114600F012
:1005C00025F800226FF00A00114600F01FF8002203
:1005D0006FF00900114600F019F80022501F114673
:1005E00000F014F80022101F114600F00FF800224E
:1005F000901E114600F00AF80022BDE80840501E87
:10060000114600F003B80000403802400E4BF0B431
:100610001B680D46C3F30223C3F10706042E00D95D
:100620000426191D072901D2002300E0DB1E012446
:1006300004FA06F19C40491E2940641E994014406A
:100640002143F0BC00F0D6BA0CED00E0064900F002
:10065000070210B54FF6FF040868044B204040EA3B
:1006600002201843086010BD0CED00E00000FA0500
:100670002DE9F04705000F4663D0444E306800F086
:100680000F00B84209D2306820F00F0038433060C4
:10069000306800F00F00B84253D128683C4C810705
:1006A00012D5400703D5206840F4E0502060287838
:1006B000000703D5206840F460402060A9682068E6
:1006C00020F0F000084320602878C0072AD0304985
:1006D00068680839012810D00968022810D08907F5
:1006E00000292EDA216821F0030101432160FFF780
:1006F00011FF804641F288390DE009688903EFE770
:100700008901EDE7FFF706FFA0EB0801494502D993
:100710000320BDE8F0876868216801F00C01B1EBA7
:10072000800FEFD1306800F00F00B8420BD930686D
:1007300020F00F0038433060306800F00F00B842FE
:1007400001D00120E5E72878400705D5E968206851
:1007500020F4E050084320602878000706D5286977
:10076000216821F4604141EAC000206000F01CF8DB
:100770002168084AC1F30311515CC840064908606A
:100780000020FFF7E1FE0020C3E70000003C02402C
:1007900008380240B40D000810000020014800682D
:1007A0007047000010000020154910B51548096871
:1007B00011F00C0213D04110042A0FD0082A0ED1D8
:1007C0000F4C241F2268236802F03F025B0207D50A
:1007D0002068C0F38810A0FB010106E0084610BDA8
:1007E0002168C1F38811A1FB00010023FFF708FD78
:1007F0002168C1F30141491C4900B0FBF1F010BD73
:10080000083802400024F4002DE9F84F05004FF0AD
:1008100000076ED02878DFF81C93A9F1040AC007FE
:10082000AAF104044CD0D9F800104846C1F3810164
:10083000012908D00068C0F3810002280AD1DAF843
:100840000000400206D52068800339D5686800287A
:10085000DFD035E06868B0F5803F0BD010B1B0F55F
:10086000A02F11D0206820F480302060206820F470
:10087000802002E0206840F480302060686890B1F9
:10088000FFF748FE06460AE0206840F4802020601A
:10089000F0E700BFFFF73EFE801B642872D8206897
:1008A0008003F7D50CE0FFF735FE064605E000BFF4
:1008B000FFF730FE801B6428F0D820688003F7D44F
:1008C0002878800742D5D9F80010484611F00C0F5F
:1008D00008D00068C0F3810002280BD1DAF80000CC
:1008E000400207D42068800718D5E868012800D1A5
:1008F00014E01CE1E8680028206817D040F00100EF
:100900002060FFF707FE064605E000BFFFF702FE86
:10091000801B0228C2D820688007F7D52869216883
:1009200021F0F80141EAC00020600FE020F0010052
:100930002060FFF7EFFD064605E000BFFFF7EAFD88
:10094000801B02281ED820688007F7D4287800076B
:1009500029D5784869696C3000298046016812D031
:1009600041F001010160FFF7D5FD064605E000BF3B
:10097000FFF7D0FD801B022804D8D8F800008007BC
:10098000F6D510E089E021F001010160FFF7C2FD1A
:10099000064604E0FFF7BEFD801B02287DD8D8F88C
:1009A00000008007F6D4287840076BD5DFF88481F3
:1009B00008F13808D8F80000C0000BD4D8F80010AF
:1009C00041F08051C8F80010D8F80000012700F06D
:1009D0008050009058480168C90512D401688346C8
:1009E00041F480710160FFF795FD064605E000BF08
:1009F000FFF790FD801B64284FD8DBF80000C0058E
:100A0000F6D54C4EA868683601280AD008B10528EA
:100A100011D0306820F001003060306820F0040010
:100A200002E0306840F001003060A868A0B1FFF734
:100A300071FD83460CE0306840F004003060F0E760
:100A4000FFF768FDA0EB0B0141F28830814266D8C8
:100A500030688007F4D50EE0FFF75CFD834607E0C1
:100A6000FFF758FDA0EB0B0141F28830814256D8C8
:100A700030688007F4D42FB1D8F8001021F08051ED
:100A8000C8F80010A869C8B3D9F80010C1F38101F3
:100A900002294CD00228206800E040E020F080705D
:100AA000206003D0FFF736FD05463BE0FFF732FD3F
:100AB000064604E0FFF72EFD801B02282FD8206891
:100AC0008001F7D4D5E90962D5E907011B4B570826
:100AD00095F82C20084303EB074343EA86110843AB
:100AE00040EA026040F00050CAF80000206840F080
:100AF00080702060FFF70EFD054606E015E000BFA0
:100B0000FFF708FD401B022809D820688001F7D5AF
:100B10000BE000BFFFF7FEFC401B022802D90320B8
:100B2000BDE8F88F20688001F4D40020F8E70120A8
:100B3000F6E7000008380240007000400000FFFFA8
:100B400004284FF0E020016903D021F00401016185
:100B5000704741F00401FAE77047401EB0F1807F12
:100B600010B501D3012010BD4FF0E02460610F21CA
:100B7000601700F03FF80020A0610721216110BD3F
:100B800010B5FFF7E9FF10BD174870B586B00168D2
:100B900041F004010160016801F004010591016860
:100BA00041F002010160006844F281050F4E00220D
:100BB00000F00200294605903046FFF7A6FC00240D
:100BC00069464FF400500294CDE900040848FFF74D
:100BD000ABFB01200095CDE9010469463046039442
:100BE000FFF7A2FB06B070BD30380240000402409F
:100BF00000080240090700284FEA116106DA00F0F8
:100C00000F0000F1E02080F8141D704700F1E02093
:100C100080F8001470477047704710B5FFF780FCEC
:100C2000BDE81040FFF7ACBF214810B592B0016895
:100C300041F080510160006800F0805011901D4823
:100C4000016821F4404141F48041016000681022B4
:100C50000024069400F440401190022000900121ED
:100C60006846CDE90312FFF7CFFD00B1FEE74FF470
:100C7000805110940F20CDE90C04CDE90E410021E4
:100C80000CA8FFF7F5FC00B1FEE7FFF787FD4FF476
:100C90007A71B0FBF1F0FFF760FF0420FFF750FF1F
:100CA0000022501E1146FFF7B1FC12B010BD00002B
:100CB0004038024000700040104A30B510481468B7
:100CC00000210F4B44F470041460083305680D4A8A
:100CD0000D4C45F00105056019600368051D1340C2
:100CE000074A03600C322C600568E305034C25F4C9
:100CF00080250560803C1160236030BD88ED00E0F8
:100D000000380240FFFFF6FE1030002402E008C861
:100D1000121F08C1002AFAD170477047002001E075
:100D200001C1121F002AFBD170470000FFF700FC31
:100D3000FFF77AFFFFF728FF1B4F4FF400561B4DBC
:100D40004FF4FA781A4C4FF4804900BFFFF7BAFA13
:100D500031463846FFF7D4FB0028F7D12868012830
:100D600013D0022814D0032815D0002220460121D8
:100D7000FFF7CBFB002220468021FFF7C6FB0022B5
:100D800049462046FFF7C1FBE0E70122114604E097
:100D90000122802101E0012249462046FFF7B5FBF0
:100DA0004046FFF7AFFAD1E70008024000000020FC
:100DB00000040240000000000000000001020304E3
:100DC00006070809E40D00080000002014000000D8
:100DD0000C0D0008F80D00081400002004040000A9
:100DE0001C0D0008000000000100000010000000C1
:080DF000000000000024F400E3
:04000005080001C925
:00000001FF
