:020000040800F2
:1000000068040020DD010008E5010008E7010008A0
:10001000E9010008EB010008ED0100080000000004
:100020000000000000000000000000004115000872
:10003000F1010008000000003F150008431500080A
:10004000F7010008F7010008F7010008F7010008B0
:10005000F7010008F7010008F7010008F7010008A0
:10006000F7010008F7010008F7010008F701000890
:10007000F7010008F7010008F7010008F701000880
:10008000F7010008F7010008F7010008F701000870
:10009000F7010008F7010008F7010008F701000860
:1000A000F7010008F7010008F7010008F701000850
:1000B000F7010008F7010008F7010008F701000840
:1000C000F7010008F7010008F7010008F701000830
:1000D000F7010008F7010008F7010008F701000820
:1000E000F7010008F7010008F7010008F701000810
:1000F000F7010008F7010008F7010008F701000800
:10010000F7010008F7010008F7010008F7010008EF
:10011000F7010008F7010008F7010008F7010008DF
:10012000F7010008F7010008F7010008F7010008CF
:10013000F7010008F7010008F7010008F7010008BF
:10014000F7010008F7010008F7010008F7010008AF
:10015000F7010008F7010008F7010008F70100089F
:10016000F7010008F7010008F7010008F70100088F
:10017000F7010008F7010008F7010008000000007F
:10018000F7010008F7010008F7010008F70100086F
:10019000F7010008F7010008F7010008F70100085F
:1001A000F7010008F7010008F7010008F70100084F
:1001B000F7010008F7010008F7010008F70100083F
:1001C000F7010008F7010008DFF80CD000F068F82C
:1001D00000480047111700086804002006488047BF
:1001E00006480047FEE7FEE7FEE7FEE7FEE7FEE71C
:1001F000FEE7FEE7FEE7FEE701160008C90100087A
:100200002DE9F05F0546002092469B46884606464B
:10021000814640241BE0284641464746224600F0DE
:100220002FF853465A46C01A914110D3114618462A
:10023000224600F016F82D1A67EB01084F462246B9
:100240000120002100F00DF817EB00094E41201E9F
:10025000A4F10104DFDC484631462A464346BDE8A6
:10026000F09F202A04DB203A00FA02F100207047B8
:100270009140C2F1200320FA03F3194390407047E4
:10028000202A04DB203A21FA02F00021704721FAEB
:1002900002F3D040C2F12002914008431946704752
:1002A000064C074D06E0E06840F0010394E80700C3
:1002B00098471034AC42F6D3FFF78AFF8C1700083A
:1002C000AC17000870B5044600F0FAF80546601C4B
:1002D00002D004480078044400F0F2F8401BA04229
:1002E000FAD370BD0C0000202DE9F84FDFF89CE137
:1002F00000224FF001084FF0030B4FF00F0A00BF30
:100300000B6808FA02F42340A34271D14D68022D14
:1003100001D0122D0FD1D5080E69570700EB8505C6
:10032000A9462D6AFF0E0AFA07FCBE4025EA0C0515
:100330002E43C9F820600F79550006680BFA05FCBA
:1003400007F0030726EA0C06AF40374307604E6804
:10035000012E05D0022E03D0112E01D0122E0ED167
:100360008668CF6826EA0C06AF4037438760466848
:100370000F79A643C7F30017974037434760C46817
:100380008E6824EA0C04AE402643C6604C68E40044
:1003900075D53F4C256845F480452560246822F0DA
:1003A0000306950704F4804400943A4C2D0F26442C
:1003B000D6F80848DFF8E0C00AFA05F7604524EAF5
:1003C000070401D100272EE0344FB84201D10127A4
:1003D00029E0334FB84201D1022724E0314FB8421F
:1003E00001D103271FE0304FB84202D104271AE0A1
:1003F00045E02E4FB84201D1052714E02C4FB842FA
:1004000001D106270FE02B4FB84201D107270AE0A0
:10041000294FB84201D1082705E0284FB84201D141
:10042000092700E00A27AF4027437546C6F8087839
:100430004E68DEF80040F60324EA030400D51C43AE
:10044000124E2C60361D4D683468AD0324EA030457
:1004500000D51C430D4F346008374D683C68ED02F1
:1004600024EA030400D51C43084D3C600C354E685B
:100470002C68B60224EA030400D51C432C60521CED
:10048000102AFFF43DAFBDE8F88F0000003C0140AA
:1004900044380240003001400000024000040240A5
:1004A00000080240000C024000100240001402400C
:1004B00000180240001C02400020024000240240BC
:1004C00001488068704700000C00002030B590F8AB
:1004D0004120202A24D190F84020012A20D0012355
:1004E00080F84030242280F8412020230024026834
:1004F000156825F0010515600268156825F480551A
:100500001560026815680D43156001680A6842F0BD
:1005100001020A6080F8413080F84040002030BD80
:10052000022030BD30B590F84120202A22D190F829
:100530004020012A1ED0012380F84030242280F878
:100540004120202400250268136823F00103136072
:100550000268136823F4706343EA012111600168A3
:100560000A6842F001020A6080F8414080F8405079
:10057000002030BD022030BD70B5040004D094F8D6
:100580004100002510B106E0012070BD204684F82E
:10059000405000F0E3F8242084F84100206801680E
:1005A00021F001010160D4E9001020F070600861C1
:1005B0002068816821F400418160E0682168012899
:1005C000A06806D040F404408860E068022803D0A8
:1005D00006E040F40040F7E721684FF4006048600F
:1005E00020212068114A4368134343602068C26891
:1005F00022F40042C26054F8106B0DCC104340EA64
:100600000320F06054F81C3CD4E900021043186049
:1006100054F81C0D026842F001020260656484F81F
:100620004110256384F84250002070BD0080000214
:100630002DE9F84F044690F841001F469046DDF83A
:1006400028A08B4620287CD194F8400001287FD038
:10065000012084F84000FFF733FF012206461923EA
:100660000090D103204600F0B5FE38BB00252121C3
:1006700084F84110102084F8420065646785618D1C
:10068000FF2734484FF00079C4F82480FF294FF049
:100690008078656303D927853A46009031E0618D03
:1006A0002185009032E05946204600F07DFE31E081
:1006B00000F0E1FE18B1606C042847D018E0606AD1
:1006C000411C6162017820688162608D401E6085F6
:1006D000208D401E0004000C20851BD1608DC8B108
:1006E0000022534680212046009600F073FE10B190
:1006F0000320BDE8F88F608DFF2804D927853A468E
:1007000000954346CFE7608D208500954B4694F8D1
:100710002820C8E7608D3246514600282046C7D1C0
:1007200000F081FE0028C6D1206820210A4AC1615C
:10073000206843681340436084F8411084F84250B5
:1007400000E005E0002084F84050D2E70120D0E727
:100750000220CEE70020008000E800FE10B500680F
:1007600086B00D49884214D11221012203230424AA
:100770004FF440708DE81F0008486946FFF7B4FD4C
:100780000748016841F400110160006800F400109E
:10079000059006B010BD0000005400400004024067
:1007A00040380240024881680278114481607047F5
:1007B0000C000020032010B500F08AF8002000F0A3
:1007C00005F800F023F8002010BD000070B50D4DB5
:1007D00004464FF47A700C4A29781268B0FBF1F0A5
:1007E000B2FBF0F000F079FD48B9102C07D20022DE
:1007F0002146501E00F04CF800206C6070BD0120B6
:1008000070BD00000C000020180000201F4808B533
:10081000016841F080510160006800F08050009054
:100820001A48001D016841F480410160006800F42D
:1008300080400090032000F04BF800226FF00B0086
:10084000114600F025F800226FF00A00114600F072
:100850001FF800226FF00900114600F019F800227D
:10086000501F114600F014F80022101F114600F02E
:100870000FF80022901E114600F00AF80022BDE891
:100880000840501E114600F003B8000040380240F6
:100890000E4BF0B41B680D46C3F30223C3F10706E9
:1008A000042E00D90426191D072901D2002300E0D7
:1008B000DB1E012404FA06F19C40491E2940641EF7
:1008C000994014402143F0BC00F028BE0CED00E03C
:1008D000064900F0070210B54FF6FF040868044B04
:1008E000204040EA02201843086010BD0CED00E0F3
:1008F0000000FA052DE9F84F04460078DFF824944B
:100900004FF000063746C0070ED0D9F8001021F48A
:100910000001C9F80010D9F80010626B1143C9F842
:100920000010606B00B90126FE4D2068843500037D
:100930000ED5E16B286820F4401008432860E06B76
:10094000B0F5801F01D010B102E0012600E00127C0
:1009500020684FF4800BC0020CD5216C286820F46D
:10096000400008432860206C584501D1012601E071
:1009700000B901272068C10100D50126800666D58F
:10098000E8483830016841F0805101600068DFF8C4
:1009900098A300F080500090DAF8001041F48071C4
:1009A000CAF80010FFF78CFD804605E0FFF788FDD0
:1009B000A0EB080064287DD8DAF80000C005F5D562
:1009C000DFF8608308F16808D8F8000010F4407080
:1009D0002AD0218E01F44071814225D0D8F8001030
:1009E000D8F8002021F4407142F48032C8F8002089
:1009F000D8F8002022F48032C8F80020C8F800108F
:100A0000D8F80000C0070FD0FFF75AFD824607E074
:100A1000FFF756FDA0EB0A0141F288308142CAD8A7
:100A2000D8F800008007F3D5206BC0F3012103291B
:100A30007ED0D9F8001021F4F811C9F80010228EE8
:100A4000D8F80010C2F30B021143C8F80010207848
:100A5000C00607D5286820F0807028602868A16B40
:100A6000084328602188AF488830490405D5626E64
:100A7000016821F44031114301602188090405D542
:100A8000A26E016821F44021114301602168C9036D
:100A900005D5E26E016821F440111143016021681F
:100AA000890305D5226F016821F4400111430160DB
:100AB000217800E018E1490605D5626C016821F053
:100AC0000301114301602178090605D5A26C016874
:100AD00021F00C01114301602188C90505D5E26CA4
:100AE000016821F03001114301602188890505D595
:100AF000226D016821F0C001114301602188490580
:100B000005D5626D016821F44071114301602188AF
:100B1000090505D5A26D016821F44061114301600A
:100B20002188C90407D5E26D016821F4405100E035
:100B300041E0114301602188890405D5226E0168D6
:100B400021F44041114301602168490205D5A26F9B
:100B5000016821F080611143016021684FF0006A53
:100B6000890209D5E26F016821F00061114301603B
:100B7000E16F514500D1012721680A0700D50127FF
:100B8000490305D5626F016821F04071114301608E
:100B90002168090206D5D4F88020016821F080512F
:100BA00011430160DFF88491012E0ED02068B0F16E
:100BB000007F0AD08FE05E4AD9F80030104023F45D
:100BC000F8120243C9F8002039E7D9F800004E4670
:100BD00020F08060C9F80000FFF772FC804605E055
:100BE000FFF76EFCA0EB080064287DD83068000198
:100BF000F6D421784B487C30C90712D0616B81B99B
:100C0000237A62680168D0F800C09201C1F3014103
:100C100042EA0142CCF3036142EA016141EA037115
:100C2000016021680A0303D5E26BB2F5801F04D08E
:100C3000C9021AD5216C594517D16368016894F827
:100C40000CC002689B01C1F3014143EA0141C2F3B8
:100C5000027241EA0C6141EA027101602968626A2C
:100C600021F01F01521E114329602168C90110D5CE
:100C7000238A62680168D0F800C09201C1F3036161
:100C800042EA034242EA0162CCF3027142EA017194
:100C90000160216889010CD56168228A237B94F860
:100CA00008C0890141EA024141EA036141EA0C714D
:100CB00001603168B04641F080613160FFF700FCAF
:100CC000064604E0FFF7FCFB801B64280CD8D8F82C
:100CD00000000001F6D56FB3D9F800004E4620F0B1
:100CE0008050C9F8000000E079E0FFF7E9FB074613
:100CF00005E000BFFFF7E4FBC01B64286FD8306835
:100D0000C0438000F6D50748216880300A0301D52A
:100D1000E26B1AB1C90225D5216C19BB6369016860
:100D2000277E08E00838024000700040003802408A
:100D3000FFFCFF0F5AE00268C1F301419B0143EA47
:100D40000143C2F3027143EA076242EA01710160A2
:100D500029686FF0FF03A26A21F4F85103EB022225
:100D6000114329602168890212D5E16F51450FD1E5
:100D7000238C6269016807689201C1F3036142EA4A
:100D8000034242EA0162C7F3027142EA0171016063
:100D90002178090716D561690268D0F800C08B0177
:100DA000277FC2F30362CCF3014143EA014141EAE8
:100DB000026141EA077101602868E16A20F440306D
:100DC00008432860306840F080503060FFF778FBBF
:100DD000044607E0FFF774FB001B642802D90320D8
:100DE000BDE8F88F3068C0438000F3D40020F7E7F7
:100DF0002DE9F04705000F4663D0444E306800F0FF
:100E00000F00B84209D2306820F00F00384330603C
:100E1000306800F00F00B84253D128683C4C81077D
:100E200012D5400703D5206840F4E05020602878B0
:100E3000000703D5206840F460402060A96820685E
:100E400020F0F000084320602878C0072AD03049FD
:100E500068680839012810D00968022810D089076D
:100E600000292EDA216821F0030101432160FFF7F8
:100E700027FB804641F288390DE009688903EFE7D6
:100E80008901EDE7FFF71CFBA0EB0801494502D9FA
:100E90000320BDE8F0876868216801F00C01B1EB20
:100EA000800FEFD1306800F00F00B8420BD93068E6
:100EB00020F00F0038433060306800F00F00B84277
:100EC00001D00120E5E72878400705D5E9682068CA
:100ED00020F4E050084320602878000706D52869F0
:100EE000216821F4604141EAC000206000F01CF854
:100EF0002168084AC1F30311515CC84006490860E3
:100F00000020FFF763FC0020C3E70000003C024024
:100F1000083802407C1700081800002001480068CB
:100F20007047000018000020154910B515480968E1
:100F300011F00C0213D04110042A0FD0082A0ED150
:100F40000F4C241F2268236802F03F025B0207D582
:100F50002068C0F38810A0FB010106E0084610BD20
:100F60002168C1F38811A1FB00010023FFF748F9B4
:100F70002168C1F30141491C4900B0FBF1F010BDEB
:100F8000083802400024F4002DE9F84F05004FF026
:100F900000076ED02878DFF81C93A9F1040AC00777
:100FA000AAF104044CD0D9F800104846C1F38101DD
:100FB000012908D00068C0F3810002280AD1DAF8BC
:100FC0000000400206D52068800339D568680028F3
:100FD000DFD035E06868B0F5803F0BD010B1B0F5D8
:100FE000A02F11D0206820F480302060206820F4E9
:100FF000802002E0206840F480302060686890B172
:10100000FFF75EFA06460AE0206840F48020206080
:10101000F0E700BFFFF754FA801B642872D82068FD
:101020008003F7D50CE0FFF74BFA064605E000BF5A
:10103000FFF746FA801B6428F0D820688003F7D4B5
:101040002878800742D5D9F80010484611F00C0FD7
:1010500008D00068C0F3810002280BD1DAF8000044
:10106000400207D42068800718D5E868012800D11D
:1010700014E01CE1E8680028206817D040F0010067
:101080002060FFF71DFA064605E000BFFFF718FADB
:10109000801B0228C2D820688007F7D528692168FC
:1010A00021F0F80141EAC00020600FE020F00100CB
:1010B0002060FFF705FA064605E000BFFFF700FADB
:1010C000801B02281ED820688007F7D428780007E4
:1010D00029D5784869696C3000298046016812D0AA
:1010E00041F001010160FFF7EBF9064605E000BFA2
:1010F000FFF7E6F9801B022804D8D8F80000800723
:10110000F6D510E089E021F001010160FFF7D8F980
:10111000064604E0FFF7D4F9801B02287DD8D8F8F2
:1011200000008007F6D4287840076BD5DFF884816B
:1011300008F13808D8F80000C0000BD4D8F8001027
:1011400041F08051C8F80010D8F80000012700F0E5
:101150008050009058480168C90512D40168834640
:1011600041F480710160FFF7ABF9064605E000BF6E
:10117000FFF7A6F9801B64284FD8DBF80000C005F4
:10118000F6D54C4EA868683601280AD008B1052863
:1011900011D0306820F001003060306820F0040089
:1011A00002E0306840F001003060A868A0B1FFF7AD
:1011B00087F983460CE0306840F004003060F0E7C7
:1011C000FFF77EF9A0EB0B0141F28830814266D82F
:1011D00030688007F4D50EE0FFF772F9834607E028
:1011E000FFF76EF9A0EB0B0141F28830814256D82F
:1011F00030688007F4D42FB1D8F8001021F0805166
:10120000C8F80010A869C8B3D9F80010C1F381016B
:1012100002294CD00228206800E040E020F08070D5
:10122000206003D0FFF74CF905463BE0FFF748F993
:10123000064604E0FFF744F9801B02282FD82068F7
:101240008001F7D4D5E90962D5E907011B4B57089E
:1012500095F82C20084303EB074343EA8611084323
:1012600040EA026040F00050CAF80000206840F0F8
:1012700080702060FFF724F9054606E015E000BF06
:10128000FFF71EF9401B022809D820688001F7D516
:101290000BE000BFFFF714F9401B022802D903201E
:1012A000BDE8F88F20688001F4D40020F8E7012021
:1012B000F6E7000008380240007000400000FFFF21
:1012C00004284FF0E020016903D021F004010161FE
:1012D000704741F00401FAE77047401EB0F1807F8B
:1012E00010B501D3012010BD4FF0E02460610F2143
:1012F000601700F013F90020A0610721216110BDE3
:1013000010B5FFF7E9FF10BD01688A69D243920763
:1013100001D400228A6200688169C943C90703D0E9
:10132000816941F001018161704700002DE9F041C0
:101330000446006890460E468069C043C0062FD41C
:101340000025202720688069C043800611D5701CC5
:10135000F8D02EB1FFF7B4F8A0EB0800B042F1D9F5
:1013600084F8417084F84250032084F84050BDE86E
:10137000F08121681020C8612068C7612046FFF70E
:10138000C3FF20680422074943680B40436062643E
:1013900084F8417084F84250012084F84050E6E718
:1013A0000020E4E700E800FE70B50068C1F3090121
:1013B000074E41EA0241049C4FF48065426819439C
:1013C00005EA54553543AA4321430A43426070BDA0
:1013D000FF63FF032DE9F0411D4617460E46044604
:1013E000DDF8188013E0681C11D02DB1FFF768F804
:1013F000A0EB0800A8420AD90020202184F841105F
:1014000084F8420084F840000320BDE8F0812068A1
:10141000806936EA000004D00020B842E3D0002002
:10142000F3E70120F9E770B516460D4604461BE0C8
:10143000324629462046FFF779FF08B1012070BDEA
:1014400025B1FFF73DF8801BA8420DD9626C002042
:1014500084F84000202142F02002626484F84110A8
:1014600084F84200032070BD20688069C043800674
:10147000DED4002070BD70B516460D4604461DE052
:10148000324629462046FFF751FF08B1012070BDC2
:10149000681C13D025B1FFF713F8801BA8420DD9A3
:1014A000626C002084F84000202142F02002626437
:1014B00084F8411084F84200032070BD20688069E0
:1014C000C0438007DCD4002070BD0000114800211B
:1014D00010B50F4C0123104A0460C0E90121C0E996
:1014E000033141618161C1610162FFF745F800B1DB
:1014F000FEE708480021FEF7E9FF00B1FEE70548D6
:101500000021FFF70FF8002800D0FEE710BD000013
:10151000005400401C000020F7A3A0000907002889
:101520004FEA116106DA00F00F0000F1E02080F8C8
:10153000141D704700F1E02080F8001470477047D8
:10154000704710B5FFF72EF9BDE81040FFF7D8BE81
:10155000294870B5B4B0016841F08051016000685D
:1015600000F0805032902548016821F4404141F458
:101570008041016000680225042300F4404032905D
:1015800001205424820501040326CDE92752CDE928
:10159000210129A921A881E87800FFF7F5FC00B115
:1015A000FEE74FF4805100240F20CDE92F41319404
:1015B0000221CDE92D052DA8FFF71AFC00B1FEE7A9
:1015C0004FF48040199400906846FFF793F900B1FA
:1015D000FEE7FFF7A3FC4FF47A71B0FBF1F0FFF7E1
:1015E0007CFE0420FFF76CFE0022501E1146FFF720
:1015F0004FF934B070BD0000403802400070004028
:10160000104A30B51048146800210F4B44F47004A0
:101610001460083305680D4A0D4C45F0010505605E
:1016200019600368051D1340074A03600C322C60E3
:101630000568E305034C25F480250560803C1160B6
:10164000236030BD88ED00E000380240FFFFF6FE69
:101650001030002402E008C8121F08C1002AFAD185
:1016600070477047002001E001C1121F002AFBD122
:101670007047022010B500F00BF8282000F008F8A1
:101680000C2000F005F8BDE810408020AFF300808A
:101690001CB5F02141EA001100F0F00040F0040315
:1016A0008DF804308DF80500642241F004048DF8B3
:1016B0000640054804238DF807104E21009201AA28
:1016C000FEF7B6FF1CBD00001C0000201CB5F02179
:1016D00041EA001100F0F00040F005038DF80430FD
:1016E00040F001008DF8050041F005048DF806403A
:1016F0006422064841F001018DF80710042300928E
:101700004E2101AAFEF794FF1CBD00001C00002022
:1017100008B5FFF74FF8FFF71BFF1648016841F0C7
:1017200080010160016801F080010091016841F0D1
:1017300002010160006800F002000090FFF7C6FEA1
:10174000FFF797FF0120FFF7A3FF8020FFF7A0FF1F
:10175000094D4FF47A760024285DFFF7B7FF304635
:10176000FEF7B0FD8020FFF793FF641C092CF3DB2C
:10177000F1E70000303802400000002000000000C7
:10178000000000000102030406070809AC17000866
:10179000000000201C00000054160008C8170008B4
:1017A0001C0000204C040000641600083132333461
:1017B0003536373839000000010000001000000005
:0817C000000000000024F40009
:04000005080001C925
:00000001FF
