:020000040800F2
:1000000038040020DD010008E5010008E7010008D0
:10001000E9010008EB010008ED0100080000000004
:1000200000000000000000000000000011110008A6
:10003000F1010008000000000F1100081311000872
:10004000F7010008F7010008F7010008F7010008B0
:10005000F7010008F7010008F7010008F7010008A0
:10006000F7010008F7010008F7010008F701000890
:10007000F7010008F7010008F7010008F701000880
:10008000F7010008F7010008F7010008F701000870
:10009000F7010008F7010008F7010008F701000860
:1000A000F7010008F7010008F7010008F701000850
:1000B000F7010008F7010008F7010008F701000840
:1000C000F7010008F7010008F7010008F701000830
:1000D000F7010008F7010008F7010008F701000820
:1000E000F7010008F7010008F7010008F701000810
:1000F000F7010008F7010008F7010008F701000800
:10010000F7010008F7010008F7010008F7010008EF
:10011000F7010008F7010008F7010008F7010008DF
:10012000F7010008F7010008F7010008F7010008CF
:10013000F7010008F7010008F7010008F7010008BF
:10014000F7010008F7010008F7010008F7010008AF
:10015000F7010008F7010008F7010008F70100089F
:10016000F7010008F7010008F7010008F70100088F
:10017000F7010008F7010008F7010008000000007F
:10018000F7010008F7010008F7010008F70100086F
:10019000F7010008F7010008F7010008F70100085F
:1001A000F7010008F7010008F7010008F70100084F
:1001B000F7010008F7010008F7010008F70100083F
:1001C000F7010008F7010008DFF80CD000F05EF935
:1001D00000480047351200083804002006488047D0
:1001E00006480047FEE7FEE7FEE7FEE7FEE7FEE71C
:1001F000FEE7FEE7FEE7FEE7C1110008C9010008BF
:100200002DE9F05F0546002092469B46884606464B
:10021000814640241BE0284641464746224600F0DE
:10022000C7F853465A46C01A914110D31146184692
:10023000224600F0AEF82D1A67EB01084F46224621
:100240000120002100F0A5F817EB00094E41201E07
:10025000A4F10104DFDC484631462A464346BDE8A6
:10026000F09F2DE9FE4F81EA030404F0004421F0E1
:10027000004100944FF0000B23F0004350EA0104CA
:100280005ED052EA03045BD0C3F30A54C1F30A55AB
:100290002C44A4F2F3340194A0FB0254C1F31301E3
:1002A00041F48011C3F3130343F4801301FB0244B0
:1002B00000FB034E840A970A44EA815447EA8357B5
:1002C000A4FB076802958D0A05FB07854FEA932C6E
:1002D00004FB0C542705029D4FEA065847EA1637DF
:1002E000B5EB08056EEB070C870E920E47EA8117F7
:1002F00042EA8312A7FB0201B6EB0B0164EB000498
:100300002B0D43EA0C335E1844EB1C50DA46514681
:10031000E7FB0201C5F313044FEA0B3343EA14531E
:100320004FEA0432019C43EA0603A4F10C04029450
:10033000009CCDE900B400F05AF803B0BDE8F08F9E
:1003400000200146F9E70EB540F233410291002149
:10035000CDE900110A460B4600F049F803B000BD94
:10036000C1F30A5210B5C1F3130140F2FF3341F457
:1003700080119A4201DA002010BD40F233439A42C4
:10038000A2F2334203DC524200F012F810BD90405A
:1003900010BD202A04DB203A00FA02F10020704749
:1003A0009140C2F1200320FA03F3194390407047B3
:1003B000202A04DB203A21FA02F00021704721FABA
:1003C00002F3D040C2F12002914008431946704721
:1003D00010B5141E73F1000408DA401C41F100014D
:1003E00092185B411A4301D120F0010010BD2DE9A4
:1003F000F04D92469B4611B1B1FA81F202E0B0FA9B
:1004000080F220329046FFF7C4FF04460F4640EAD0
:100410000A0041EA0B0153465A46084313D01146DD
:1004200053EA010019D0C8F140025046FFF7C0FF5F
:1004300005460E46504659464246FFF7AAFF084376
:1004400005D0012004E020463946BDE8F08D0020AB
:10045000054346EAE0762C4337430A986305E40AED
:10046000A0EB08000022FD0A44EA47540A3002D5F6
:1004700000200146E9E7010510196941DDE9084559
:1004800000196941BDE8F04DA2E70000064C074D98
:1004900006E0E06840F0010394E807009847103454
:1004A000AC42F6D3FFF794FEB0120008D012000859
:1004B00070B5044600F000F90546601C02D00448FF
:1004C0000078044400F0F8F8401BA042FAD370BD55
:1004D000240000202DE9F84FDFF89CE100224FF0C6
:1004E00001084FF0030B4FF00F0A00BF0B6808FA2A
:1004F00002F42340A34271D14D68022D01D0122D88
:100500000FD1D5080E69570700EB8505A9462D6A5E
:10051000FF0E0AFA07FCBE4025EA0C052E43C9F877
:1005200020600F79550006680BFA05FC07F00307F9
:1005300026EA0C06AF40374307604E68012E05D00F
:10054000022E03D0112E01D0122E0ED18668CF6854
:1005500026EA0C06AF403743876046680F79A6430A
:10056000C7F30017974037434760C4688E6824EA92
:100570000C04AE402643C6604C68E40075D53F4C81
:10058000256845F480452560246822F00306950718
:1005900004F4804400943A4C2D0F2644D6F80848C1
:1005A000DFF8E0C00AFA05F7604524EA070401D144
:1005B00000272EE0344FB84201D1012729E0334F04
:1005C000B84201D1022724E0314FB84201D10327BC
:1005D0001FE0304FB84202D104271AE045E02E4F09
:1005E000B84201D1052714E02C4FB84201D10627AB
:1005F0000FE02B4FB84201D107270AE0294FB8423C
:1006000001D1082705E0284FB84201D1092700E0B1
:100610000A27AF4027437546C6F808784E68DEF8CB
:100620000040F60324EA030400D51C43124E2C605C
:10063000361D4D683468AD0324EA030400D51C431D
:100640000D4F346008374D683C68ED0224EA03041E
:1006500000D51C43084D3C600C354E682C68B60232
:1006600024EA030400D51C432C60521C102AFFF41A
:100670003DAFBDE8F88F0000003C01404438024027
:100680000030014000000240000402400008024027
:10069000000C02400010024000140240001802400A
:1006A000001C024000200240002402400AB1816187
:1006B00070470904FBE700000148806870470000AC
:1006C000240000200248816802781144816070474C
:1006D00024000020032010B500F08AF8002000F06C
:1006E00005F800F023F8002010BD000070B50D4D96
:1006F00004464FF47A700C4A29781268B0FBF1F086
:10070000B2FBF0F000F02BFB48B9102C07D200220E
:100710002146501E00F04CF800206C6070BD012096
:1007200070BD000024000020300000201F4808B5E4
:10073000016841F080510160006800F08050009035
:100740001A48001D016841F480410160006800F40E
:1007500080400090032000F04BF800226FF00B0067
:10076000114600F025F800226FF00A00114600F053
:100770001FF800226FF00900114600F019F800225E
:10078000501F114600F014F80022101F114600F00F
:100790000FF80022901E114600F00AF80022BDE872
:1007A0000840501E114600F003B8000040380240D7
:1007B0000E4BF0B41B680D46C3F30223C3F10706CA
:1007C000042E00D90426191D072901D2002300E0B8
:1007D000DB1E012404FA06F19C40491E2940641ED8
:1007E000994014402143F0BC00F080BC0CED00E0C7
:1007F000064900F0070210B54FF6FF040868044BE5
:10080000204040EA02201843086010BD0CED00E0D3
:100810000000FA052DE9F04705000F4663D0444E6D
:10082000306800F00F00B84209D2306820F00F00A5
:1008300038433060306800F00F00B84253D1286868
:100840003C4C810712D5400703D5206840F4E050A6
:1008500020602878000703D5206840F460402060BD
:10086000A968206820F0F000084320602878C007BD
:100870002AD0304968680839012810D00968022850
:1008800010D0890700292EDA216821F003010143E5
:100890002160FFF711FF804641F288390DE00968B9
:1008A0008903EFE78901EDE7FFF706FFA0EB0801F9
:1008B000494502D90320BDE8F0876868216801F046
:1008C0000C01B1EB800FEFD1306800F00F00B8429F
:1008D0000BD9306820F00F0038433060306800F0EA
:1008E0000F00B84201D00120E5E72878400705D580
:1008F000E968206820F4E050084320602878000769
:1009000006D52869216821F4604141EAC0002060D1
:1009100000F04CF82168084AC1F30311515CC8404B
:10092000064908600020FFF7E1FE0020C3E7000051
:10093000003C0240083802409812000830000020B5
:100940000D4A0F2330B503604FF4E0540B4B15688C
:1009500005F003054560156805F0F005856015682C
:1009600005F4E055C560126804EAD2020261186815
:1009700000F00F00086030BD08380240003C024023
:100980000148006870470000300000200449054815
:1009900009680068044AC1F38221515CC84070476D
:1009A0000838024030000020A8120008154910B590
:1009B0001548096811F00C0213D04110042A0FD019
:1009C000082A0ED10F4C241F2268236802F03F0230
:1009D0005B0207D52068C0F38810A0FB010106E088
:1009E000084610BD2168C1F38811A1FB0001002356
:1009F000FFF706FC2168C1F30141491C4900B0FB27
:100A0000F1F010BD083802400024F4002DE9F84F41
:100A100005004FF000076ED02878DFF81C93A9F18D
:100A2000040AC007AAF104044CD0D9F800104846C3
:100A3000C1F38101012908D00068C0F381000228B8
:100A40000AD1DAF80000400206D52068800339D5C3
:100A500068680028DFD035E06868B0F5803F0BD0CB
:100A600010B1B0F5A02F11D0206820F480302060A4
:100A7000206820F4802002E0206840F4803020606C
:100A8000686890B1FFF718FE06460AE0206840F457
:100A900080202060F0E700BFFFF70EFE801B642877
:100AA00072D820688003F7D50CE0FFF705FE0646F4
:100AB00005E000BFFFF700FE801B6428F0D8206827
:100AC0008003F7D42878800742D5D9F8001048462B
:100AD00011F00C0F08D00068C0F3810002280BD180
:100AE000DAF80000400207D42068800718D5E868CB
:100AF000012800D114E01CE1E8680028206817D024
:100B000040F001002060FFF7D7FD064605E000BF7A
:100B1000FFF7D2FD801B0228C2D820688007F7D5D6
:100B20002869216821F0F80141EAC00020600FE047
:100B300020F001002060FFF7BFFD064605E000BF82
:100B4000FFF7BAFD801B02281ED820688007F7D463
:100B50002878000729D5784869696C3000298046D3
:100B6000016812D041F001010160FFF7A5FD0646C2
:100B700005E000BFFFF7A0FD801B022804D8D8F8CD
:100B800000008007F6D510E089E021F00101016046
:100B9000FFF792FD064604E0FFF78EFD801B02285A
:100BA0007DD8D8F800008007F6D4287840076BD5A8
:100BB000DFF8848108F13808D8F80000C0000BD4B1
:100BC000D8F8001041F08051C8F80010D8F80000A3
:100BD000012700F08050009058480168C90512D4E0
:100BE0000168834641F480710160FFF765FD0646A8
:100BF00005E000BFFFF760FD801B64284FD8DBF8DD
:100C00000000C005F6D54C4EA868683601280AD009
:100C100008B1052811D0306820F00100306030683C
:100C200020F0040002E0306840F001003060A86865
:100C3000A0B1FFF741FD83460CE0306840F00400AE
:100C40003060F0E7FFF738FDA0EB0B0141F2883090
:100C5000814266D830688007F4D50EE0FFF72CFD9E
:100C6000834607E0FFF728FDA0EB0B0141F2883037
:100C7000814256D830688007F4D42FB1D8F80010DC
:100C800021F08051C8F80010A869C8B3D9F8001045
:100C9000C1F3810102294CD00228206800E040E025
:100CA00020F08070206003D0FFF706FD05463BE092
:100CB000FFF702FD064604E0FFF7FEFC801B02285A
:100CC0002FD820688001F7D4D5E90962D5E907015A
:100CD0001B4B570895F82C20084303EB074343EAC6
:100CE0008611084340EA026040F00050CAF8000054
:100CF000206840F080702060FFF7DEFC054606E0CB
:100D000015E000BFFFF7D8FC401B022809D8206877
:100D10008001F7D50BE000BFFFF7CEFC401B022897
:100D200002D90320BDE8F88F20688001F4D40020A8
:100D3000F8E70120F6E700000838024000700040A4
:100D40000000FFFF04284FF0E020016903D021F0EC
:100D500004010161704741F00401FAE77047401E49
:100D6000B0F1807F10B501D3012010BD4FF0E02419
:100D700060610F21601700F0B9F90020A061072120
:100D8000216110BD10B5FFF7E9FF10BD2DE9F05F3F
:100D90000AAC94E8E05F1E4CA061A180E280E361B0
:100DA00025816681A781A4F80E80C4F82090A4F85C
:100DB00010A0A4F812B0A4F814C0A4F816E000F033
:100DC0004BF8012121703820A0701420FFF770FB30
:100DD000302000F027F90520FFF76AFB302000F0F3
:100DE00021F90120FFF764FB302000F01BF90120FE
:100DF000FFF75EFB382000F015F90F2000F012F924
:100E0000012000F00FF9BDE8F05F0220FFF750BBB2
:100E10000000002010B5094C0122E188A069FFF70D
:100E200045FC0A2000F064F8E1880022A069FFF781
:100E30003DFCBDE810403C2000F05AB80000002006
:100E4000044A00289188906901D0012200E0002224
:100E5000FFF72CBC00000020F0B587B005A968465C
:100E6000FFF76EFD0398B8B3FFF790FD5FEA40000F
:100E7000FFF769FA9FED1A1B53EC112BFFF7F1F9FD
:100E8000FFF76EFA184A1949136843F0020313601A
:100E90000B68164A23F010030B6010320B68134CDA
:100EA00023F001030B60283409250F68231D012658
:100EB00027F004070F600F6802F1040C47F00807E1
:100EC0000F60401E20601D60CCF80060106820F0AC
:100ED0000100106007B0F0BDFFE7FFF757FDC7E75F
:100EE0008DEDB5A0F7C6B03E40380240000400408A
:100EF000094A09491C32401E10600A68064822F05F
:100F000001020A601038026842F0010202600868BB
:100F1000C007FCD0704700001004004070B50024EA
:100F2000064609E00120FFF78BFF284600F008F88D
:100F3000641CE4B2102C02D2355D002DF2D170BDDC
:100F40002DE9F84F364C020902F00801009100F03B
:100F5000080902F0040B217802F0020A02F00107EE
:100F6000012900F0040600F0020500F001082FD06E
:100F7000022952D1218A3A46206AFFF797FB618AFB
:100F80005246206AFFF792FBA18A5A46206AFFF771
:100F90008DFBE18A009A206AFFF788FBFFF73AFF92
:100FA000218A4246206AFFF781FB618A2A46206A2D
:100FB000FFF77CFBA18A3246206AFFF777FB4A469F
:100FC000E18A206AFFF772FBBDE8F84FFFF722BF06
:100FD00021894246E069FFF769FB61892A46E06999
:100FE000FFF764FBA1893246E069FFF75FFBE18907
:100FF0004A46E069FFF75AFB218A3A46206AFFF722
:1010000055FB618A5246206AFFF750FBA18A5A4677
:10101000206AFFF74BFB009AD2E7BDE8F88F00008B
:101020000000002010B504460020FFF709FF20460D
:10103000BDE81040FFF784BF28482DE9F04701685C
:1010400086B041F010010160016801F010010591C6
:10105000016841F002010160016801F0020105919F
:10106000016841F00801016000680022DFF870802B
:10107000142100F0080005904046FFF717FBDFF849
:1010800064904FF47046002231464846FFF70EFB4D
:10109000DFF854A03711002239465046FFF706FB0F
:1010A00000246946012514200090CDE901544046F2
:1010B0000394FFF70FFA00966946CDE901544846BC
:1010C0000394FFF707FA00976946CDE901545046AB
:1010D0000394FFF7FFF906B0BDE8F087303802400F
:1010E0000010024000040240000C024009070028E2
:1010F0004FEA116106DA00F00F0000F1E02080F8FD
:10110000141D704700F1E02080F80014704770470C
:10111000704710B5FFF7D6FABDE81040FFF732BEB2
:10112000254870B592B0016841F0805101600068B7
:1011300000F0805011902148016821F4404141F4B1
:101140000041016000680025102100F4404011902A
:10115000022400940120CDE90645CDE9030108A948
:1011600068460822A823032681E85C00FFF74EFCAE
:1011700000B1FEE74FF480524FF4A0510F20CDE9AB
:101180000F120CAA052182E831000CA8FFF742FBE0
:1011900000B1FEE7FFF7F4FB4FF47A71B0FBF1F01A
:1011A000FFF7DDFD0420FFF7CDFD0022501E1146A4
:1011B000FFF7FEFA12B070BD4038024000700040E8
:1011C000104A30B51048146800210F4B44F47004E5
:1011D0001460083305680D4A0D4C45F001050560A3
:1011E00019600368051D1340074A03600C322C6028
:1011F0000568E305034C25F480250560803C1160FB
:10120000236030BD88ED00E000380240FFFFF6FEAD
:101210001030002402E008C8121F08C1002AFAD1C9
:1012200070477047002001E001C1121F002AFBD166
:10123000704700008AB0FFF74DFAFFF771FFFFF724
:10124000FBFE4FF400600E4E0DF1080C41108210B1
:10125000C310CDE9071087000501C400CDE90532B0
:101260004000084BCDE900078CE8700006481022CA
:101270000421FFF78BFD05A0FFF750FEFEE70000FD
:10128000000C0240000402400010024048656C6CF3
:101290006F20776F726C6400000000000000000097
:1012A000010203040607080900000000010203040C
:1012B000D0120008000000203400000014120008C2
:1012C0000413000834000020040400002412000865
:1012D000010F3800000000000000000000000000C6
:1012E00000000000000000000000000000000000FE
:1012F00000000000010000001000000000000000DD
:041300000024F400D1
:04000005080001C925
:00000001FF
